{
  "contractName": "batchIonc",
  "abi": [
    {
      "constant": false,
      "inputs": [
        {
          "name": "_receivers",
          "type": "address[]"
        },
        {
          "name": "_value",
          "type": "uint256"
        }
      ],
      "name": "batchTransfer",
      "outputs": [],
      "payable": true,
      "stateMutability": "payable",
      "type": "function"
    }
  ],
  "bytecode": "0x608060405234801561001057600080fd5b50610154806100206000396000f300608060405260043610610041576000357c0100000000000000000000000000000000000000000000000000000000900463ffffffff16806383f12fec14610046575b600080fd5b6100a760048036038101908080359060200190820180359060200190808060200260200160405190810160405280939291908181526020018383602002808284378201915050505050509192919290803590602001909291905050506100a9565b005b60008090505b82518110156101235782818151811015156100c657fe5b9060200190602002015173ffffffffffffffffffffffffffffffffffffffff166108fc839081150290604051600060405180830381858888f19350505050158015610115573d6000803e3d6000fd5b5080806001019150506100af565b5050505600a165627a7a72305820ef5a0eea6e2b9dabcb33d31fddd9360650f8e0892b000748bfe4a4fb498784a10029",
  "source": "pragma solidity ^0.4.23;\n\ncontract batchIonc {\n\n    function batchTransfer(address[] _receivers, uint256 _value) payable public {\n\n        for (uint256 i = 0; i < _receivers.length; i++) {\n            _receivers[i].transfer(_value);\n        }\n    }\n}\n",
  "sourcePath": "/Users/yves/nodeworkspace/truffle_learn_06/contracts/batchIonc.sol",
  "compiler": {
    "name": "solc",
    "version": "0.4.24+commit.e67f0147.Emscripten.clang"
  },
  "schemaVersion": "2.0.1",
  "updatedAt": "2018-11-14T09:44:15.359Z"
}