{
  "contractName": "Multiplexer",
  "abi": [
    {
      "constant": false,
      "inputs": [
        {
          "name": "_to",
          "type": "address[]"
        },
        {
          "name": "_value",
          "type": "uint256"
        }
      ],
      "name": "sendEth",
      "outputs": [
        {
          "name": "_success",
          "type": "bool"
        }
      ],
      "payable": true,
      "stateMutability": "payable",
      "type": "function"
    }
  ],
  "bytecode": "0x608060405234801561001057600080fd5b506101de806100206000396000f300608060405260043610610041576000357c0100000000000000000000000000000000000000000000000000000000900463ffffffff168063feaf653d14610046575b600080fd5b6100a760048036038101908080359060200190820180359060200190808060200260200160405190810160405280939291908181526020018383602002808284378201915050505050509192919290803590602001909291905050506100c1565b604051808215151515815260200191505060405180910390f35b600080600080600060ff8751111515156100d757fe5b34935060009250600091505b86518260ff161015610158578583019250868260ff1681518110151561010557fe5b9060200190602002015173ffffffffffffffffffffffffffffffffffffffff166108fc879081150290604051600060405180830381858888f19350505050151561014b57fe5b81806001019250506100e3565b828403905060008111156101a4573373ffffffffffffffffffffffffffffffffffffffff166108fc829081150290604051600060405180830381858888f1935050505015156101a357fe5b5b6001945050505050929150505600a165627a7a723058203e50588eaa4843f449cfa40b24eebfe9670aa2aceff66eff6205b8c0c018c8c60029",
  "source": "pragma solidity ^0.4.24;\n\n\ncontract Multiplexer {\n\n    function sendEth(address[] _to, uint256 _value) public payable returns (bool _success) {\n        // input validation\n        assert(_to.length <= 255);\n        // count values for refunding sender\n        uint256 beforeValue = msg.value;\n        uint256 afterValue = 0;\n        // loop through to addresses and send value\n        for (uint8 i = 0; i < _to.length; i++) {\n            afterValue = afterValue + _value;\n            assert(_to[i].send(_value));\n        }\n        // send back remaining value to sender\n        uint256 remainingValue = beforeValue - afterValue;\n        if (remainingValue > 0) {\n            assert(msg.sender.send(remainingValue));\n        }\n        return true;\n    }\n}",
  "sourcePath": "/Users/yves/nodeworkspace/truffle_learn_06/contracts/Multiplexer.sol",
  "compiler": {
    "name": "solc",
    "version": "0.4.24+commit.e67f0147.Emscripten.clang"
  },
  "schemaVersion": "2.0.1",
  "updatedAt": "2018-11-14T09:52:52.781Z"
}