{
  "contractName": "Multiplexer",
  "abi": [
    {
      "constant": false,
      "inputs": [
        {
          "name": "_to",
          "type": "address[]"
        },
        {
          "name": "_value",
          "type": "uint256"
        }
      ],
      "name": "sendEth",
      "outputs": [
        {
          "name": "",
          "type": "bool"
        }
      ],
      "payable": true,
      "stateMutability": "payable",
      "type": "function"
    }
  ],
  "bytecode": "0x608060405234801561001057600080fd5b50610203806100206000396000f3fe60806040526004361061001e5760003560e01c8063feaf653d14610023575b600080fd5b6100e36004803603604081101561003957600080fd5b810190808035906020019064010000000081111561005657600080fd5b82018360208201111561006857600080fd5b8035906020019184602083028401116401000000008311171561008a57600080fd5b919080806020026020016040519081016040528093929190818152602001838360200280828437600081840152601f19601f820116905080830192505050505050509192919290803590602001909291905050506100fd565b604051808215151515815260200191505060405180910390f35b600080349050600080905060008090505b85518160ff16101561017d578482019150858160ff168151811061012e57fe5b602002602001015173ffffffffffffffffffffffffffffffffffffffff166108fc869081150290604051600060405180830381858888f1935050505061017057fe5b808060010191505061010e565b506000818303905060008111156101ca573373ffffffffffffffffffffffffffffffffffffffff166108fc829081150290604051600060405180830381858888f193505050506101c957fe5b5b600193505050509291505056fea165627a7a72305820f7eca3512ad913ed5f80c56fdfb160a6c955d048fc7aedee0bd968eb7bbc192b0029",
  "source": "pragma solidity ^0.5.8;\n\n\ncontract Multiplexer {\n\n    function sendEth(address payable[] memory _to, uint256 _value) public payable returns (bool) {\n\n        uint256 beforeValue = msg.value;\n        uint256 afterValue = 0;\n\n        for (uint8 i = 0; i < _to.length; i++) {\n            afterValue = afterValue + _value;\n            assert(_to[i].send(_value));\n        }\n\n        uint256 remainingValue = beforeValue - afterValue;\n        if (remainingValue > 0) {\n            assert(msg.sender.send(remainingValue));\n        }\n        return true;\n    }\n}",
  "sourcePath": "/Users/yves/nodeworkspace/truffle_learn_06/contracts/Multiplexer.sol",
  "compiler": {
    "name": "solc",
    "version": "0.5.8+commit.23d335f2.Emscripten.clang"
  },
  "schemaVersion": "3.0.10",
  "updatedAt": "2019-06-03T12:02:18.696Z",
  "devdoc": {
    "methods": {}
  },
  "userdoc": {
    "methods": {}
  }
}